:020000020000FC
:1000000000E00093C1000FEF0DBF08E00EBF00E855
:100010000093610004E00093610000E007B90FEF76
:1000200008B90FEF04B900E005B90FEF0AB900E015
:100030000BB91FE720E030E040E006B11017E9F30C
:100040000E94360006B11017C1F3102F00FF0E9466
:100050003B0001FF0E94470002FF0E94530003FF84
:100060000E945F0004FF0E946B00E7CFFAE0FA9560
:10007000F030E9F708952F703F7E2F3021F023955F
:100080002BB935B9089520E02BB935B908952F70F3
:100090003F7E203021F02A952BB935B908952FE005
:1000A0002BB935B908952F703F7E3F3021F033953D
:1000B00035B92BB9089530E035B92BB908952F70B3
:1000C0003F7E303021F03A9535B92BB908953FE0A5
:1000D00035B92BB90895422F430F40FD206141FDF2
:1000E000206242FD206443FD206844FD306135B943
:0400F0002BB908958B
:00000001FF
